S01900004D6173746572416D697450726F6A6563742E737265633D
S11300000C942A000C9434000C9434000C943400A6
S11300100C9434000C9434000C9434000C9434008C
S11300200C9434000C9434000C9434000C9434007C
S11300300C9434000C9434000C9434000C9434006C
S11300400C9434000C9434000C9434000C9434005C
S11300500C94340011241FBECFE5D8E0DEBFCDBF21
S11300600E94E6000C9420010C940000442319F033
S11300704130C9F10895813091F028F08230D9F0EF
S1130080833029F108952AB381E090E002C0880FFB
S1130090991F6A95E2F7809582238ABB089527B356
S11300A081E090E002C0880F991F6A95E2F780957D
S11300B0822387BB089524B381E090E002C0880FB7
S11300C0991F6A95E2F78095822384BB089521B332
S11300D081E090E002C0880F991F6A95E2F780954D
S11300E0822381BB0895813089F028F08230C9F0E1
S11300F0833011F108952AB381E090E002C0880FA3
S1130100991F6A95E2F7822B8ABB089527B381E091
S113011090E002C0880F991F6A95E2F7822B87BB93
S1130120089524B381E090E002C0880F991F6A9576
S1130130E2F7822B84BB089521B381E090E002C0F2
S1130140880F991F6A95E2F7822B81BB089581304D
S113015089F028F08230C9F0833011F108952BB36F
S113016081E090E002C0880F991F6A95E2F7822728
S11301708BBB089528B381E090E002C0880F991FDB
S11301806A95E2F7822788BB089525B381E090E061
S113019002C0880F991F6A95E2F7822785BB0895EC
S11301A022B381E090E002C0880F991F6A95E2F7BC
S11301B0822782BB089541E062E082E00E9436001B
S11301C0089562E082E00E94A70008950E94DB0087
S11301D00E9414010E94F80080E00E940E010E9417
S11301E01C01C82F0E94E1008C2F0E940A01F7CF46
S11301F087B3806287BB87B38F7B87BB87B38068F5
S113020087BB87B3806187BB83ED8DB98FB7806867
S11302108FBF08958FB9779BFECF0895811103C0D6
S113022088B38F7E88BB089588E18AB986E880BD4B
S113023087E689B910BC08955F9BFECF8CB1089501
S1070240F894FFCF5C
S9030000FC
